:100000000C942A000C9434000C9434000C943400AA
:100010000C9434000C9434000C9434000C94340090
:100020000C9434000C9434000C9434000C94340080
:100030000C9434000C9434000C9434000C94340070
:100040000C9434000C9434000C9434000C94340060
:100050000C94340011241FBECFE5D8E0DEBFCDBF25
:100060000E9408010C9413010C9400008130F9F0F7
:1000700030F08230A1F1833009F449C00895413055
:1000800049F42AB381E090E001C0880F6A95EAF74D
:10009000822B0BC0411152C02AB381E090E001C015
:1000A000880F6A95EAF7809582238ABB08954130CC
:1000B00049F427B381E090E001C0880F6A95EAF720
:1000C000822B0BC041113AC027B381E090E001C000
:1000D000880F6A95EAF78095822387BB089541309F
:1000E00049F424B381E090E001C0880F6A95EAF7F3
:1000F000822B0BC0411122C024B381E090E001C0EB
:10010000880F6A95EAF78095822384BB0895413071
:1001100049F421B381E090E001C0880F6A95EAF7C5
:10012000822B0BC041110AC021B381E090E001C0D5
:10013000880F6A95EAF78095822381BB0895813004
:10014000F9F030F08230A1F1833009F449C008950C
:10015000413049F42BB381E090E001C0880F6A95EB
:10016000EAF7822B0BC0411152C02BB381E090E023
:1001700001C0880F6A95EAF7809582238BBB0895AA
:10018000413049F428B381E090E001C0880F6A95BE
:10019000EAF7822B0BC041113AC028B381E090E00E
:1001A00001C0880F6A95EAF78095822388BB08957D
:1001B000413049F425B381E090E001C0880F6A9591
:1001C000EAF7822B0BC0411122C025B381E090E0F9
:1001D00001C0880F6A95EAF78095822385BB089550
:1001E000413049F422B381E090E001C0880F6A9564
:1001F000EAF7822B0BC041110AC022B381E090E0E4
:1002000001C0880F6A95EAF78095822382BB089522
:1002100041E060E080E00E94360041E060E080E084
:0A0220000E949F00F5CFF894FFCF75
:00000001FF
